:020000042010CA
:10340000903D1020113410200138FDD1704700008C
:103410000248016881F30888014800470034102001
:103420003138102000BFFA49896920221140002953
:10343000F9D1F7490860704700BFF548806910214D
:1034400008400028F9D1F2480068C0B2704710B5B2
:10345000002300240BE0FFF7EFFF0246ED48007861
:103460008018EC4908701B0A12069B18641C042C77
:10347000F1D3184610BD10B50346002404E0D8B2BD
:10348000FFF7D0FF1B0A641C042CF8DB10BD10B53D
:10349000E148E24908610846006801210843DF4924
:1034A000086008460068FF21C1318843DB49086095
:1034B000002422E0DA480068D8494860D84800680B
:1034C000001DD7490860D5480068FF21C131084375
:1034D000D24908600120FFF797FFD048C068A100DB
:1034E000D04A5050CD480068FF21C1318843CB49B4
:1034F00008600120FFF788FF641C402CDADBC74816
:10350000006840084000C549086010BD10B5C648B5
:103510000468002C01D1FFF7BAFFA100C14A50583E
:10352000FFF7A9FF641CA100BE4A5058FFF7A3FF94
:10353000641CA006800EBC49086010BD70B5002058
:10354000B4490870002405E0FFF781FFA100B54AE7
:103550005050641C402CF7D3AF48B049086108466E
:10356000006801210843AD49086008460068F7215A
:1035700089018843A9490860002451E0A8480068EF
:103580000019A6494860084600684121890108439E
:10359000A24908600620FFF737FFA0480068012114
:1035A000490308439D4908600B20FFF72DFF0025C4
:1035B0001FE09B480068401900199849486060194D
:1035C0008008800097490858944988600846006838
:1035D00080210843914908603220FFF715FF8F488A
:1035E0000068802188438D4908600120FFF70CFFA7
:1035F0001035FF2DDDD98948006801210903884372
:10360000864908600620FFF7FFFE84480068812194
:1036100089018843814908600120FFF7F5FE241DD8
:10362000102CABD37D480068400840007B490860FF
:103630007B480068FF3001307949086075480078A0
:10364000FFF7F0FE70BD70B50546002432E0281982
:103650007249486008460068B721890188436F496C
:103660000860084600681121890108436B49086019
:103670000620FFF7C9FE6948006801214903084395
:10368000664908606948FFF7BFFE64480068012189
:1036900089028843614908600620FFF7B5FE5F484C
:1036A00000688121890188435C4908600220FFF796
:1036B000ABFE241D102CCAD370BD10B5002430E021
:1036C000564844600068B72189018843534908601F
:1036D00008460068312189010843504908600620E6
:1036E000FFF792FE4D4800680121490308434B490A
:1036F00008604E48FFF788FE4848006801218902AB
:103700008843464908606E20FFF77EFE4348006804
:10371000A12189018843414908600220FFF774FE16
:10372000241D102CCCD310BD70B500203949087071
:10373000FFF78DFE044637480078FFF773FE3648E2
:10374000364908610846006801210843334908608A
:10375000002C07D1FFF7B1FF0025012040043049BC
:10376000086022E0254600260CE0E807C00F00288C
:1037700006D030032A49086008460068FFF763FF57
:103780006D08761C202EF0D325480068012109031E
:10379000401823490860002503E0012000032D188C
:1037A0006408E007C00F0028F7D02C461AE01B4839
:1037B00044600068FF21C1310843184908600120B6
:1037C000FFF722FE1548C6680068FF21C131884313
:1037D000124908600120FFF717FE701C002800D076
:1037E00004E0241D0E4800688442E0D300BF0B486B
:1037F000006840084000094908604520FFF712FEB4
:103800002046FFF738FE3046FFF735FE70BD00005A
:1038100000000340083C10205155AA8A0080014056
:10382000003C10200C3C1020043C102050C3000031
:1038300049E0FFF701FE0446502C19D006DC412C6C
:103840001CD0452C11D0492C3CD104E0522C24D062
:10385000562C37D10FE0002404E01B49085DFFF728
:10386000E1FD641C0C2CF8DB2CE0FFF75DFF29E088
:10387000FFF764FE26E0FFF749FE23E0002013492E
:103880000870FFF7E4FD1249086000201149086044
:103890000E480078FFF7C6FD14E05220FFF7C2FD86
:1038A0004B204001FFF7B0FD0B48C0690121C9065C
:1038B00008430949C8610948846BC8142043074973
:1038C000886300BF00BFB4E7E0381020083C102038
:1038D000003C1020043C10200000024000800D40FD
:1038E00031393836424F4F54554152540000000090
:0838F0000000000000000000D0
:0400000500000000F7
:00000001FF
