:020000042000DA
:10380000903F00201138002040000138FDD1704762
:103810000248016881F30888014800470038002009
:10382000693B002070B53A483A490861084600688B
:103830000121084337490860002432E035484460DC
:103840000068B7218901884332490860084600684A
:103850003121890108432F4908600B20FFF7D4FF6D
:103860002C4800680121490308432A4908602A4876
:10387000FFF7CAFF274800680121890288432549CC
:1038800008606E20FFF7C0FF22480068A12189016F
:103890008843204908600220FFF7B6FF0120C003DB
:1038A0002418012040048442C8D300241AE0194897
:1038B00044600068FF21C1310843164908600120B7
:1038C000FFF7A2FF1348C5680068FF21C131884394
:1038D000104908600120FFF797FF681C002800D0FE
:1038E00004E0241D012040048442E0D300BF0948C5
:1038F00000684008400007490860452000F07AF859
:10390000204600F083F8284600F080F870BD0000E3
:103910005155AA8A0080014050C3000000BF0548ED
:103920008069102108400028F9D102480068C0B21F
:10393000704700000080004010B5002300240BE019
:10394000FFF7ECFF0246064800788018044908702B
:103950001B0A12069B18641C042CF1D3184610BDD8
:10396000083E002010B51F481F490861084600683E
:10397000012108431C49086008460068FF21C13145
:10398000884319490860002422E018480068164955
:10399000486016480068001D144908601248006815
:1039A000FF21C1310843104908600120FFF72CFFB7
:1039B0000D48C068A1000E4A50500B480068FF2116
:1039C000C1318843084908600120FFF71DFF641CCE
:1039D000402CDADB044800684008400002490860D7
:1039E00010BD00005155AA8A00800140003E002011
:1039F0000C3E002000BF04498969202211400029A3
:103A0000F9D10149086070470080004010B50346B5
:103A1000002404E0D8B2FFF7EDFF1B0A641C042C5D
:103A2000F8DB10BD10B500203C490870002405E00B
:103A3000FFF782FFA1003A4A5050641C402CF7D394
:103A40003848394908610846006801210843364969
:103A5000086008460068F7218901884332490860F8
:103A600032480068486008460068412189010843DF
:103A70002D4908600620FFF7C7FE2B48006801218A
:103A800049030843284908600B20FFF7BDFE0024C6
:103A90001DE0A00025490968401823494860A0009E
:103AA0001F4908582049886008460068802108435B
:103AB0001D4908603220FFF7A7FE1B4800688021DF
:103AC0008843194908600120FFF79EFE641C402CC2
:103AD000DFD31548006801210903884312490860B3
:103AE0000620FFF791FE1048006881218901884374
:103AF0000D4908600120FFF787FE0B480068400869
:103B000040000949086009480068FF300130074952
:103B1000086002480078FFF76DFF10BD083E0020E6
:103B20000C3E00205155AA8A00800140003E002032
:103B300010B50B480468002C01D1FFF713FFA1005A
:103B4000084A5058FFF762FF641CA100054A50580C
:103B5000FFF75CFF641CA006800E0149086010BDE1
:103B6000043E00200C3E00202848C069082108437C
:103B70002649C86149E0FFF7D1FE0446502C19D010
:103B800006DC412C1CD0452C11D0492C3CD104E042
:103B9000522C24D0562C37D10FE0002404E01C49CD
:103BA000085DFFF727FF641C0B2CF8DB2CE0FFF708
:103BB00039FE29E0FFF736FF26E0FFF7B9FF23E0E3
:103BC000002014490870FFF7B7FE13490860002071
:103BD000124908600F480078FFF70CFF14E05220EC
:103BE000FFF708FF4B204001FFF70EFE0748C069B2
:103BF0000121090308430549C8610948846BC014C1
:103C000020430749886300BF00BFB4E700000240BB
:103C1000243C0020083E0020003E0020043E0020FE
:103C200000000640424F4F5455415254564534000F
:0C3C300000000000000000000000000088
:04000005200038118E
:00000001FF
